{
  "contractName": "CoShoe",
  "abi": [
    {
      "constant": true,
      "inputs": [
        {
          "name": "_interfaceId",
          "type": "bytes4"
        }
      ],
      "name": "supportsInterface",
      "outputs": [
        {
          "name": "",
          "type": "bool"
        }
      ],
      "payable": false,
      "stateMutability": "view",
      "type": "function"
    },
    {
      "constant": true,
      "inputs": [],
      "name": "name",
      "outputs": [
        {
          "name": "",
          "type": "string"
        }
      ],
      "payable": false,
      "stateMutability": "view",
      "type": "function"
    },
    {
      "constant": true,
      "inputs": [],
      "name": "minter",
      "outputs": [
        {
          "name": "",
          "type": "address"
        }
      ],
      "payable": false,
      "stateMutability": "view",
      "type": "function"
    },
    {
      "constant": true,
      "inputs": [
        {
          "name": "_tokenId",
          "type": "uint256"
        }
      ],
      "name": "getApproved",
      "outputs": [
        {
          "name": "",
          "type": "address"
        }
      ],
      "payable": false,
      "stateMutability": "view",
      "type": "function"
    },
    {
      "constant": false,
      "inputs": [
        {
          "name": "_to",
          "type": "address"
        },
        {
          "name": "_tokenId",
          "type": "uint256"
        }
      ],
      "name": "approve",
      "outputs": [],
      "payable": false,
      "stateMutability": "nonpayable",
      "type": "function"
    },
    {
      "constant": true,
      "inputs": [],
      "name": "totalSupply",
      "outputs": [
        {
          "name": "",
          "type": "uint256"
        }
      ],
      "payable": false,
      "stateMutability": "view",
      "type": "function"
    },
    {
      "constant": true,
      "inputs": [],
      "name": "InterfaceId_ERC165",
      "outputs": [
        {
          "name": "",
          "type": "bytes4"
        }
      ],
      "payable": false,
      "stateMutability": "view",
      "type": "function"
    },
    {
      "constant": false,
      "inputs": [
        {
          "name": "_from",
          "type": "address"
        },
        {
          "name": "_to",
          "type": "address"
        },
        {
          "name": "_tokenId",
          "type": "uint256"
        }
      ],
      "name": "transferFrom",
      "outputs": [],
      "payable": false,
      "stateMutability": "nonpayable",
      "type": "function"
    },
    {
      "constant": true,
      "inputs": [
        {
          "name": "_owner",
          "type": "address"
        },
        {
          "name": "_index",
          "type": "uint256"
        }
      ],
      "name": "tokenOfOwnerByIndex",
      "outputs": [
        {
          "name": "",
          "type": "uint256"
        }
      ],
      "payable": false,
      "stateMutability": "view",
      "type": "function"
    },
    {
      "constant": false,
      "inputs": [
        {
          "name": "_from",
          "type": "address"
        },
        {
          "name": "_to",
          "type": "address"
        },
        {
          "name": "_tokenId",
          "type": "uint256"
        }
      ],
      "name": "safeTransferFrom",
      "outputs": [],
      "payable": false,
      "stateMutability": "nonpayable",
      "type": "function"
    },
    {
      "constant": true,
      "inputs": [
        {
          "name": "_tokenId",
          "type": "uint256"
        }
      ],
      "name": "exists",
      "outputs": [
        {
          "name": "",
          "type": "bool"
        }
      ],
      "payable": false,
      "stateMutability": "view",
      "type": "function"
    },
    {
      "constant": true,
      "inputs": [
        {
          "name": "_index",
          "type": "uint256"
        }
      ],
      "name": "tokenByIndex",
      "outputs": [
        {
          "name": "",
          "type": "uint256"
        }
      ],
      "payable": false,
      "stateMutability": "view",
      "type": "function"
    },
    {
      "constant": true,
      "inputs": [
        {
          "name": "",
          "type": "uint256"
        }
      ],
      "name": "shoes",
      "outputs": [
        {
          "name": "owner",
          "type": "address"
        },
        {
          "name": "name",
          "type": "string"
        },
        {
          "name": "image",
          "type": "string"
        },
        {
          "name": "sold",
          "type": "bool"
        }
      ],
      "payable": false,
      "stateMutability": "view",
      "type": "function"
    },
    {
      "constant": true,
      "inputs": [
        {
          "name": "_tokenId",
          "type": "uint256"
        }
      ],
      "name": "ownerOf",
      "outputs": [
        {
          "name": "",
          "type": "address"
        }
      ],
      "payable": false,
      "stateMutability": "view",
      "type": "function"
    },
    {
      "constant": true,
      "inputs": [
        {
          "name": "_owner",
          "type": "address"
        }
      ],
      "name": "balanceOf",
      "outputs": [
        {
          "name": "",
          "type": "uint256"
        }
      ],
      "payable": false,
      "stateMutability": "view",
      "type": "function"
    },
    {
      "constant": true,
      "inputs": [],
      "name": "symbol",
      "outputs": [
        {
          "name": "",
          "type": "string"
        }
      ],
      "payable": false,
      "stateMutability": "view",
      "type": "function"
    },
    {
      "constant": false,
      "inputs": [
        {
          "name": "_to",
          "type": "address"
        },
        {
          "name": "_approved",
          "type": "bool"
        }
      ],
      "name": "setApprovalForAll",
      "outputs": [],
      "payable": false,
      "stateMutability": "nonpayable",
      "type": "function"
    },
    {
      "constant": false,
      "inputs": [
        {
          "name": "_from",
          "type": "address"
        },
        {
          "name": "_to",
          "type": "address"
        },
        {
          "name": "_tokenId",
          "type": "uint256"
        },
        {
          "name": "_data",
          "type": "bytes"
        }
      ],
      "name": "safeTransferFrom",
      "outputs": [],
      "payable": false,
      "stateMutability": "nonpayable",
      "type": "function"
    },
    {
      "constant": true,
      "inputs": [
        {
          "name": "_tokenId",
          "type": "uint256"
        }
      ],
      "name": "tokenURI",
      "outputs": [
        {
          "name": "",
          "type": "string"
        }
      ],
      "payable": false,
      "stateMutability": "view",
      "type": "function"
    },
    {
      "constant": true,
      "inputs": [
        {
          "name": "_owner",
          "type": "address"
        },
        {
          "name": "_operator",
          "type": "address"
        }
      ],
      "name": "isApprovedForAll",
      "outputs": [
        {
          "name": "",
          "type": "bool"
        }
      ],
      "payable": false,
      "stateMutability": "view",
      "type": "function"
    },
    {
      "inputs": [
        {
          "name": "_name",
          "type": "string"
        },
        {
          "name": "_symbol",
          "type": "string"
        }
      ],
      "payable": false,
      "stateMutability": "nonpayable",
      "type": "constructor"
    },
    {
      "anonymous": false,
      "inputs": [
        {
          "indexed": true,
          "name": "_shoeId",
          "type": "uint256"
        }
      ],
      "name": "registeredShoeEvent",
      "type": "event"
    },
    {
      "anonymous": false,
      "inputs": [
        {
          "indexed": true,
          "name": "_from",
          "type": "address"
        },
        {
          "indexed": true,
          "name": "_to",
          "type": "address"
        },
        {
          "indexed": true,
          "name": "_tokenId",
          "type": "uint256"
        }
      ],
      "name": "Transfer",
      "type": "event"
    },
    {
      "anonymous": false,
      "inputs": [
        {
          "indexed": true,
          "name": "_owner",
          "type": "address"
        },
        {
          "indexed": true,
          "name": "_approved",
          "type": "address"
        },
        {
          "indexed": true,
          "name": "_tokenId",
          "type": "uint256"
        }
      ],
      "name": "Approval",
      "type": "event"
    },
    {
      "anonymous": false,
      "inputs": [
        {
          "indexed": true,
          "name": "_owner",
          "type": "address"
        },
        {
          "indexed": true,
          "name": "_operator",
          "type": "address"
        },
        {
          "indexed": false,
          "name": "_approved",
          "type": "bool"
        }
      ],
      "name": "ApprovalForAll",
      "type": "event"
    },
    {
      "constant": false,
      "inputs": [
        {
          "name": "_name",
          "type": "string"
        },
        {
          "name": "_image",
          "type": "string"
        }
      ],
      "name": "buyShoe",
      "outputs": [],
      "payable": true,
      "stateMutability": "payable",
      "type": "function"
    },
    {
      "constant": true,
      "inputs": [],
      "name": "checkPurchases",
      "outputs": [
        {
          "name": "",
          "type": "bool[]"
        }
      ],
      "payable": false,
      "stateMutability": "view",
      "type": "function"
    },
    {
      "constant": true,
      "inputs": [],
      "name": "getNumberOfRegisteredShoes",
      "outputs": [
        {
          "name": "",
          "type": "uint256"
        }
      ],
      "payable": false,
      "stateMutability": "view",
      "type": "function"
    },
    {
      "constant": true,
      "inputs": [],
      "name": "getPrice",
      "outputs": [
        {
          "name": "",
          "type": "uint256"
        }
      ],
      "payable": false,
      "stateMutability": "pure",
      "type": "function"
    },
    {
      "constant": true,
      "inputs": [],
      "name": "getNumShoesSold",
      "outputs": [
        {
          "name": "",
          "type": "uint256"
        }
      ],
      "payable": false,
      "stateMutability": "view",
      "type": "function"
    }
  ],
  "bytecode": "0x60806040526000600c60146101000a81548160ff021916908360ff1602179055503480156200002d57600080fd5b506040516200323938038062003239833981018060405281019080805182019291906020018051820192919050505081816200009b6301ffc9a77c01000000000000000000000000000000000000000000000000000000000262000248640100000000026401000000009004565b620000d86380ac58cd7c01000000000000000000000000000000000000000000000000000000000262000248640100000000026401000000009004565b62000115634f558e797c01000000000000000000000000000000000000000000000000000000000262000248640100000000026401000000009004565b81600590805190602001906200012d92919062000964565b5080600690805190602001906200014692919062000964565b506200018463780e9d637c01000000000000000000000000000000000000000000000000000000000262000248640100000000026401000000009004565b620001c1635b5e139f7c01000000000000000000000000000000000000000000000000000000000262000248640100000000026401000000009004565b505033600c60006101000a81548173ffffffffffffffffffffffffffffffffffffffff021916908373ffffffffffffffffffffffffffffffffffffffff16021790555062000240600c60009054906101000a900473ffffffffffffffffffffffffffffffffffffffff1662000306640100000000026401000000009004565b505062000a9a565b63ffffffff7c010000000000000000000000000000000000000000000000000000000002817bffffffffffffffffffffffffffffffffffffffffffffffffffffffff1916141515156200029a57600080fd5b6001600080837bffffffffffffffffffffffffffffffffffffffffffffffffffffffff19167bffffffffffffffffffffffffffffffffffffffffffffffffffffffff1916815260200190815260200160002060006101000a81548160ff02191690831515021790555050565b606060006040805190810160405280600c81526020017f436f53686f6520546f6b656e00000000000000000000000000000000000000008152509150600090505b606460ff16811015620004ff57600d6080604051908101604052808573ffffffffffffffffffffffffffffffffffffffff1681526020016020604051908101604052806000815250815260200160206040519081016040528060008152508152602001600015158152509080600181540180825580915050906001820390600052602060002090600402016000909192909190915060008201518160000160006101000a81548173ffffffffffffffffffffffffffffffffffffffff021916908373ffffffffffffffffffffffffffffffffffffffff160217905550602082015181600101908051906020019062000441929190620009eb565b50604082015181600201908051906020019062000460929190620009eb565b5060608201518160030160006101000a81548160ff021916908315150217905550505050807f028d1bce26e60eeca07653319cf16210d7ea3813e7742b542ef432017af368bd60405160405180910390a2620004d18382620005046401000000000262002626176401000000009004565b620004f1818362000571640100000000026200267d176401000000009004565b808060010191505062000347565b505050565b620005248282620005c564010000000002620026bd176401000000009004565b600980549050600a60008381526020019081526020016000208190555060098190806001815401808255809150509060018203906000526020600020016000909192909190915055505050565b6200058b826200067d640100000000026401000000009004565b15156200059757600080fd5b80600b60008481526020019081526020016000209080519060200190620005c092919062000964565b505050565b600073ffffffffffffffffffffffffffffffffffffffff168273ffffffffffffffffffffffffffffffffffffffff16141515156200060257600080fd5b6200061d8282620006ef640100000000026401000000009004565b808273ffffffffffffffffffffffffffffffffffffffff16600073ffffffffffffffffffffffffffffffffffffffff167fddf252ad1be2c89b69c2b068fc378daa952ba7f163c4a11628f55a4df523b3ef60405160405180910390a45050565b6000806001600084815260200190815260200160002060009054906101000a900473ffffffffffffffffffffffffffffffffffffffff169050600073ffffffffffffffffffffffffffffffffffffffff168173ffffffffffffffffffffffffffffffffffffffff161415915050919050565b6000620007118383620007dc64010000000002620023cc176401000000009004565b600760008473ffffffffffffffffffffffffffffffffffffffff1673ffffffffffffffffffffffffffffffffffffffff168152602001908152602001600020805490509050600760008473ffffffffffffffffffffffffffffffffffffffff1673ffffffffffffffffffffffffffffffffffffffff168152602001908152602001600020829080600181540180825580915050906001820390600052602060002001600090919290919091505550806008600084815260200190815260200160002081905550505050565b600073ffffffffffffffffffffffffffffffffffffffff166001600083815260200190815260200160002060009054906101000a900473ffffffffffffffffffffffffffffffffffffffff1673ffffffffffffffffffffffffffffffffffffffff161415156200084b57600080fd5b816001600083815260200190815260200160002060006101000a81548173ffffffffffffffffffffffffffffffffffffffff021916908373ffffffffffffffffffffffffffffffffffffffff160217905550620009006001600360008573ffffffffffffffffffffffffffffffffffffffff1673ffffffffffffffffffffffffffffffffffffffff16815260200190815260200160002054620009476401000000000262002539179091906401000000009004565b600360008473ffffffffffffffffffffffffffffffffffffffff1673ffffffffffffffffffffffffffffffffffffffff168152602001908152602001600020819055505050565b600081830190508281101515156200095b57fe5b80905092915050565b828054600181600116156101000203166002900490600052602060002090601f016020900481019282601f10620009a757805160ff1916838001178555620009d8565b82800160010185558215620009d8579182015b82811115620009d7578251825591602001919060010190620009ba565b5b509050620009e7919062000a72565b5090565b828054600181600116156101000203166002900490600052602060002090601f016020900481019282601f1062000a2e57805160ff191683800117855562000a5f565b8280016001018555821562000a5f579182015b8281111562000a5e57825182559160200191906001019062000a41565b5b50905062000a6e919062000a72565b5090565b62000a9791905b8082111562000a9357600081600090555060010162000a79565b5090565b90565b61278f8062000aaa6000396000f300608060405260043610610149576000357c0100000000000000000000000000000000000000000000000000000000900463ffffffff16806301ffc9a71461014e57806306fdde03146101b25780630754617214610242578063081812fc14610299578063095ea7b31461030657806318160ddd1461035357806319fa8f501461037e57806323b872dd146103e75780632f745c591461045457806342842e0e146104b557806348a445c7146105225780634f558e791461054d5780634f6ccce714610592578063540a2f4f146105d3578063558a2b8b14610675578063607473cf146106e15780636352211e1461083157806370a082311461089e57806395d89b41146108f557806398d5fdca14610985578063a22cb465146109b0578063b88d4fde146109ff578063c210453414610ab2578063c87b56dd14610add578063e985e9c514610b83575b600080fd5b34801561015a57600080fd5b5061019860048036038101908080357bffffffffffffffffffffffffffffffffffffffffffffffffffffffff19169060200190929190505050610bfe565b604051808215151515815260200191505060405180910390f35b3480156101be57600080fd5b506101c7610c65565b6040518080602001828103825283818151815260200191508051906020019080838360005b838110156102075780820151818401526020810190506101ec565b50505050905090810190601f1680156102345780820380516001836020036101000a031916815260200191505b509250505060405180910390f35b34801561024e57600080fd5b50610257610d07565b604051808273ffffffffffffffffffffffffffffffffffffffff1673ffffffffffffffffffffffffffffffffffffffff16815260200191505060405180910390f35b3480156102a557600080fd5b506102c460048036038101908080359060200190929190505050610d2d565b604051808273ffffffffffffffffffffffffffffffffffffffff1673ffffffffffffffffffffffffffffffffffffffff16815260200191505060405180910390f35b34801561031257600080fd5b50610351600480360381019080803573ffffffffffffffffffffffffffffffffffffffff16906020019092919080359060200190929190505050610d6a565b005b34801561035f57600080fd5b50610368610eaf565b6040518082815260200191505060405180910390f35b34801561038a57600080fd5b50610393610ebc565b60405180827bffffffffffffffffffffffffffffffffffffffffffffffffffffffff19167bffffffffffffffffffffffffffffffffffffffffffffffffffffffff1916815260200191505060405180910390f35b3480156103f357600080fd5b50610452600480360381019080803573ffffffffffffffffffffffffffffffffffffffff169060200190929190803573ffffffffffffffffffffffffffffffffffffffff16906020019092919080359060200190929190505050610ee3565b005b34801561046057600080fd5b5061049f600480360381019080803573ffffffffffffffffffffffffffffffffffffffff16906020019092919080359060200190929190505050610fee565b6040518082815260200191505060405180910390f35b3480156104c157600080fd5b50610520600480360381019080803573ffffffffffffffffffffffffffffffffffffffff169060200190929190803573ffffffffffffffffffffffffffffffffffffffff16906020019092919080359060200190929190505050611065565b005b34801561052e57600080fd5b50610537611086565b6040518082815260200191505060405180910390f35b34801561055957600080fd5b50610578600480360381019080803590602001909291905050506110a0565b604051808215151515815260200191505060405180910390f35b34801561059e57600080fd5b506105bd60048036038101908080359060200190929190505050611112565b6040518082815260200191505060405180910390f35b610673600480360381019080803590602001908201803590602001908080601f0160208091040260200160405190810160405280939291908181526020018383808284378201915050505050509192919290803590602001908201803590602001908080601f016020809104026020016040519081016040528093929190818152602001838380828437820191505050505050919291929050505061114a565b005b34801561068157600080fd5b5061068a61146a565b6040518080602001828103825283818151815260200191508051906020019060200280838360005b838110156106cd5780820151818401526020810190506106b2565b505050509050019250505060405180910390f35b3480156106ed57600080fd5b5061070c6004803603810190808035906020019092919050505061160f565b604051808573ffffffffffffffffffffffffffffffffffffffff1673ffffffffffffffffffffffffffffffffffffffff168152602001806020018060200184151515158152602001838103835286818151815260200191508051906020019080838360005b8381101561078c578082015181840152602081019050610771565b50505050905090810190601f1680156107b95780820380516001836020036101000a031916815260200191505b50838103825285818151815260200191508051906020019080838360005b838110156107f25780820151818401526020810190506107d7565b50505050905090810190601f16801561081f5780820380516001836020036101000a031916815260200191505b50965050505050505060405180910390f35b34801561083d57600080fd5b5061085c600480360381019080803590602001909291905050506117ab565b604051808273ffffffffffffffffffffffffffffffffffffffff1673ffffffffffffffffffffffffffffffffffffffff16815260200191505060405180910390f35b3480156108aa57600080fd5b506108df600480360381019080803573ffffffffffffffffffffffffffffffffffffffff169060200190929190505050611829565b6040518082815260200191505060405180910390f35b34801561090157600080fd5b5061090a6118ad565b6040518080602001828103825283818151815260200191508051906020019080838360005b8381101561094a57808201518184015260208101905061092f565b50505050905090810190601f1680156109775780820380516001836020036101000a031916815260200191505b509250505060405180910390f35b34801561099157600080fd5b5061099a61194f565b6040518082815260200191505060405180910390f35b3480156109bc57600080fd5b506109fd600480360381019080803573ffffffffffffffffffffffffffffffffffffffff169060200190929190803515159060200190929190505050611969565b005b348015610a0b57600080fd5b50610ab0600480360381019080803573ffffffffffffffffffffffffffffffffffffffff169060200190929190803573ffffffffffffffffffffffffffffffffffffffff16906020019092919080359060200190929190803590602001908201803590602001908080601f0160208091040260200160405190810160405280939291908181526020018383808284378201915050505050509192919290505050611aa5565b005b348015610abe57600080fd5b50610ac7611acd565b6040518082815260200191505060405180910390f35b348015610ae957600080fd5b50610b0860048036038101908080359060200190929190505050611ada565b6040518080602001828103825283818151815260200191508051906020019080838360005b83811015610b48578082015181840152602081019050610b2d565b50505050905090810190601f168015610b755780820380516001836020036101000a031916815260200191505b509250505060405180910390f35b348015610b8f57600080fd5b50610be4600480360381019080803573ffffffffffffffffffffffffffffffffffffffff169060200190929190803573ffffffffffffffffffffffffffffffffffffffff169060200190929190505050611ba3565b604051808215151515815260200191505060405180910390f35b6000806000837bffffffffffffffffffffffffffffffffffffffffffffffffffffffff19167bffffffffffffffffffffffffffffffffffffffffffffffffffffffff1916815260200190815260200160002060009054906101000a900460ff169050919050565b606060058054600181600116156101000203166002900480601f016020809104026020016040519081016040528092919081815260200182805460018160011615610100020316600290048015610cfd5780601f10610cd257610100808354040283529160200191610cfd565b820191906000526020600020905b815481529060010190602001808311610ce057829003601f168201915b5050505050905090565b600c60009054906101000a900473ffffffffffffffffffffffffffffffffffffffff1681565b60006002600083815260200190815260200160002060009054906101000a900473ffffffffffffffffffffffffffffffffffffffff169050919050565b6000610d75826117ab565b90508073ffffffffffffffffffffffffffffffffffffffff168373ffffffffffffffffffffffffffffffffffffffff1614151515610db257600080fd5b8073ffffffffffffffffffffffffffffffffffffffff163373ffffffffffffffffffffffffffffffffffffffff161480610df25750610df18133611ba3565b5b1515610dfd57600080fd5b826002600084815260200190815260200160002060006101000a81548173ffffffffffffffffffffffffffffffffffffffff021916908373ffffffffffffffffffffffffffffffffffffffff160217905550818373ffffffffffffffffffffffffffffffffffffffff168273ffffffffffffffffffffffffffffffffffffffff167f8c5be1e5ebec7d5bd14f71427d1e84f3dd0314c0f7b2291e5b200ac8c7c3b92560405160405180910390a4505050565b6000600980549050905090565b6301ffc9a77c01000000000000000000000000000000000000000000000000000000000281565b610eed3382611c37565b1515610ef857600080fd5b600073ffffffffffffffffffffffffffffffffffffffff168373ffffffffffffffffffffffffffffffffffffffff1614151515610f3457600080fd5b600073ffffffffffffffffffffffffffffffffffffffff168273ffffffffffffffffffffffffffffffffffffffff1614151515610f7057600080fd5b610f7a8382611ccc565b610f848382611dcf565b610f8e8282611f8b565b808273ffffffffffffffffffffffffffffffffffffffff168473ffffffffffffffffffffffffffffffffffffffff167fddf252ad1be2c89b69c2b068fc378daa952ba7f163c4a11628f55a4df523b3ef60405160405180910390a4505050565b6000610ff983611829565b8210151561100657600080fd5b600760008473ffffffffffffffffffffffffffffffffffffffff1673ffffffffffffffffffffffffffffffffffffffff1681526020019081526020016000208281548110151561105257fe5b9060005260206000200154905092915050565b6110818383836020604051908101604052806000815250611aa5565b505050565b6000600c60149054906101000a900460ff1660ff16905090565b6000806001600084815260200190815260200160002060009054906101000a900473ffffffffffffffffffffffffffffffffffffffff169050600073ffffffffffffffffffffffffffffffffffffffff168173ffffffffffffffffffffffffffffffffffffffff161415915050919050565b600061111c610eaf565b8210151561112957600080fd5b60098281548110151561113857fe5b90600052602060002001549050919050565b6000806000806001600c60149054906101000a900460ff1660640360ff16101515156111de576040517f08c379a00000000000000000000000000000000000000000000000000000000081526004018080602001828103825260158152602001807f4e6f2070616972206f662073686f6573206c656674000000000000000000000081525060200191505060405180910390fd5b6706f05b59d3b2000067ffffffffffffffff163414151561128d576040517f08c379a000000000000000000000000000000000000000000000000000000000815260040180806020018281038252602c8152602001807f50726f706f73656420707269636520646f6573206e6f74206d6174636820707281526020017f696365206f662073686f6573000000000000000000000000000000000000000081525060400191505060405180910390fd5b600c60149054906101000a900460ff1660ff169350349250339150600d848154811015156112b757fe5b906000526020600020906004020160000160009054906101000a900473ffffffffffffffffffffffffffffffffffffffff1690508073ffffffffffffffffffffffffffffffffffffffff166108fc849081150290604051600060405180830381858888f19350505050158015611331573d6000803e3d6000fd5b5081600d8581548110151561134257fe5b906000526020600020906004020160000160006101000a81548173ffffffffffffffffffffffffffffffffffffffff021916908373ffffffffffffffffffffffffffffffffffffffff16021790555085600d858154811015156113a157fe5b906000526020600020906004020160010190805190602001906113c5929190612555565b5084600d858154811015156113d657fe5b906000526020600020906004020160020190805190602001906113fa929190612555565b506001600d8581548110151561140c57fe5b906000526020600020906004020160030160006101000a81548160ff0219169083151502179055506001600c60148282829054906101000a900460ff160192506101000a81548160ff021916908360ff160217905550505050505050565b6060600060606000803073ffffffffffffffffffffffffffffffffffffffff1663c21045346040518163ffffffff167c0100000000000000000000000000000000000000000000000000000000028152600401602060405180830381600087803b1580156114d757600080fd5b505af11580156114eb573d6000803e3d6000fd5b505050506040513d602081101561150157600080fd5b81019080805190602001909291905050509350836040519080825280602002602001820160405280156115435781602001602082028038833980820191505090505b509250600090505b83811015611605573373ffffffffffffffffffffffffffffffffffffffff16600d8281548110151561157957fe5b906000526020600020906004020160000160009054906101000a900473ffffffffffffffffffffffffffffffffffffffff1673ffffffffffffffffffffffffffffffffffffffff1614156115d057600191506115d5565b600091505b8183828151811015156115e457fe5b9060200190602002019015159081151581525050808060010191505061154b565b8294505050505090565b600d8181548110151561161e57fe5b90600052602060002090600402016000915090508060000160009054906101000a900473ffffffffffffffffffffffffffffffffffffffff1690806001018054600181600116156101000203166002900480601f0160208091040260200160405190810160405280929190818152602001828054600181600116156101000203166002900480156116f05780601f106116c5576101008083540402835291602001916116f0565b820191906000526020600020905b8154815290600101906020018083116116d357829003601f168201915b505050505090806002018054600181600116156101000203166002900480601f01602080910402602001604051908101604052809291908181526020018280546001816001161561010002031660029004801561178e5780601f106117635761010080835404028352916020019161178e565b820191906000526020600020905b81548152906001019060200180831161177157829003601f168201915b5050505050908060030160009054906101000a900460ff16905084565b6000806001600084815260200190815260200160002060009054906101000a900473ffffffffffffffffffffffffffffffffffffffff169050600073ffffffffffffffffffffffffffffffffffffffff168173ffffffffffffffffffffffffffffffffffffffff161415151561182057600080fd5b80915050919050565b60008073ffffffffffffffffffffffffffffffffffffffff168273ffffffffffffffffffffffffffffffffffffffff161415151561186657600080fd5b600360008373ffffffffffffffffffffffffffffffffffffffff1673ffffffffffffffffffffffffffffffffffffffff168152602001908152602001600020549050919050565b606060068054600181600116156101000203166002900480601f0160208091040260200160405190810160405280929190818152602001828054600181600116156101000203166002900480156119455780601f1061191a57610100808354040283529160200191611945565b820191906000526020600020905b81548152906001019060200180831161192857829003601f168201915b5050505050905090565b60006706f05b59d3b2000067ffffffffffffffff16905090565b3373ffffffffffffffffffffffffffffffffffffffff168273ffffffffffffffffffffffffffffffffffffffff16141515156119a457600080fd5b80600460003373ffffffffffffffffffffffffffffffffffffffff1673ffffffffffffffffffffffffffffffffffffffff16815260200190815260200160002060008473ffffffffffffffffffffffffffffffffffffffff1673ffffffffffffffffffffffffffffffffffffffff16815260200190815260200160002060006101000a81548160ff0219169083151502179055508173ffffffffffffffffffffffffffffffffffffffff163373ffffffffffffffffffffffffffffffffffffffff167f17307eab39ab6107e8899845ad3d59bd9653f200f220920489ca2b5937696c3183604051808215151515815260200191505060405180910390a35050565b611ab0848484610ee3565b611abc84848484612062565b1515611ac757600080fd5b50505050565b6000600d80549050905090565b6060611ae5826110a0565b1515611af057600080fd5b600b60008381526020019081526020016000208054600181600116156101000203166002900480601f016020809104026020016040519081016040528092919081815260200182805460018160011615610100020316600290048015611b975780601f10611b6c57610100808354040283529160200191611b97565b820191906000526020600020905b815481529060010190602001808311611b7a57829003601f168201915b50505050509050919050565b6000600460008473ffffffffffffffffffffffffffffffffffffffff1673ffffffffffffffffffffffffffffffffffffffff16815260200190815260200160002060008373ffffffffffffffffffffffffffffffffffffffff1673ffffffffffffffffffffffffffffffffffffffff16815260200190815260200160002060009054906101000a900460ff16905092915050565b600080611c43836117ab565b90508073ffffffffffffffffffffffffffffffffffffffff168473ffffffffffffffffffffffffffffffffffffffff161480611cb257508373ffffffffffffffffffffffffffffffffffffffff16611c9a84610d2d565b73ffffffffffffffffffffffffffffffffffffffff16145b80611cc35750611cc28185611ba3565b5b91505092915050565b8173ffffffffffffffffffffffffffffffffffffffff16611cec826117ab565b73ffffffffffffffffffffffffffffffffffffffff16141515611d0e57600080fd5b600073ffffffffffffffffffffffffffffffffffffffff166002600083815260200190815260200160002060009054906101000a900473ffffffffffffffffffffffffffffffffffffffff1673ffffffffffffffffffffffffffffffffffffffff16141515611dcb5760006002600083815260200190815260200160002060006101000a81548173ffffffffffffffffffffffffffffffffffffffff021916908373ffffffffffffffffffffffffffffffffffffffff1602179055505b5050565b6000806000611dde8585612284565b60086000858152602001908152602001600020549250611e4a6001600760008873ffffffffffffffffffffffffffffffffffffffff1673ffffffffffffffffffffffffffffffffffffffff168152602001908152602001600020805490506123b390919063ffffffff16565b9150600760008673ffffffffffffffffffffffffffffffffffffffff1673ffffffffffffffffffffffffffffffffffffffff16815260200190815260200160002082815481101515611e9857fe5b9060005260206000200154905080600760008773ffffffffffffffffffffffffffffffffffffffff1673ffffffffffffffffffffffffffffffffffffffff16815260200190815260200160002084815481101515611ef257fe5b9060005260206000200181905550600760008673ffffffffffffffffffffffffffffffffffffffff1673ffffffffffffffffffffffffffffffffffffffff168152602001908152602001600020805480919060019003611f5291906125d5565b50600060086000868152602001908152602001600020819055508260086000838152602001908152602001600020819055505050505050565b6000611f9783836123cc565b600760008473ffffffffffffffffffffffffffffffffffffffff1673ffffffffffffffffffffffffffffffffffffffff168152602001908152602001600020805490509050600760008473ffffffffffffffffffffffffffffffffffffffff1673ffffffffffffffffffffffffffffffffffffffff168152602001908152602001600020829080600181540180825580915050906001820390600052602060002001600090919290919091505550806008600084815260200190815260200160002081905550505050565b6000806120848573ffffffffffffffffffffffffffffffffffffffff16612526565b1515612093576001915061227b565b8473ffffffffffffffffffffffffffffffffffffffff1663150b7a02338887876040518563ffffffff167c0100000000000000000000000000000000000000000000000000000000028152600401808573ffffffffffffffffffffffffffffffffffffffff1673ffffffffffffffffffffffffffffffffffffffff1681526020018473ffffffffffffffffffffffffffffffffffffffff1673ffffffffffffffffffffffffffffffffffffffff16815260200183815260200180602001828103825283818151815260200191508051906020019080838360005b8381101561218857808201518184015260208101905061216d565b50505050905090810190601f1680156121b55780820380516001836020036101000a031916815260200191505b5095505050505050602060405180830381600087803b1580156121d757600080fd5b505af11580156121eb573d6000803e3d6000fd5b505050506040513d602081101561220157600080fd5b8101908080519060200190929190505050905063150b7a027c0100000000000000000000000000000000000000000000000000000000027bffffffffffffffffffffffffffffffffffffffffffffffffffffffff1916817bffffffffffffffffffffffffffffffffffffffffffffffffffffffff19161491505b50949350505050565b8173ffffffffffffffffffffffffffffffffffffffff166122a4826117ab565b73ffffffffffffffffffffffffffffffffffffffff161415156122c657600080fd5b6123196001600360008573ffffffffffffffffffffffffffffffffffffffff1673ffffffffffffffffffffffffffffffffffffffff168152602001908152602001600020546123b390919063ffffffff16565b600360008473ffffffffffffffffffffffffffffffffffffffff1673ffffffffffffffffffffffffffffffffffffffff1681526020019081526020016000208190555060006001600083815260200190815260200160002060006101000a81548173ffffffffffffffffffffffffffffffffffffffff021916908373ffffffffffffffffffffffffffffffffffffffff1602179055505050565b60008282111515156123c157fe5b818303905092915050565b600073ffffffffffffffffffffffffffffffffffffffff166001600083815260200190815260200160002060009054906101000a900473ffffffffffffffffffffffffffffffffffffffff1673ffffffffffffffffffffffffffffffffffffffff1614151561243a57600080fd5b816001600083815260200190815260200160002060006101000a81548173ffffffffffffffffffffffffffffffffffffffff021916908373ffffffffffffffffffffffffffffffffffffffff1602179055506124df6001600360008573ffffffffffffffffffffffffffffffffffffffff1673ffffffffffffffffffffffffffffffffffffffff1681526020019081526020016000205461253990919063ffffffff16565b600360008473ffffffffffffffffffffffffffffffffffffffff1673ffffffffffffffffffffffffffffffffffffffff168152602001908152602001600020819055505050565b600080823b905060008111915050919050565b6000818301905082811015151561254c57fe5b80905092915050565b828054600181600116156101000203166002900490600052602060002090601f016020900481019282601f1061259657805160ff19168380011785556125c4565b828001600101855582156125c4579182015b828111156125c35782518255916020019190600101906125a8565b5b5090506125d19190612601565b5090565b8154818355818111156125fc578183600052602060002091820191016125fb9190612601565b5b505050565b61262391905b8082111561261f576000816000905550600101612607565b5090565b90565b61263082826126bd565b600980549050600a60008381526020019081526020016000208190555060098190806001815401808255809150509060018203906000526020600020016000909192909190915055505050565b612686826110a0565b151561269157600080fd5b80600b600084815260200190815260200160002090805190602001906126b8929190612555565b505050565b600073ffffffffffffffffffffffffffffffffffffffff168273ffffffffffffffffffffffffffffffffffffffff16141515156126f957600080fd5b6127038282611f8b565b808273ffffffffffffffffffffffffffffffffffffffff16600073ffffffffffffffffffffffffffffffffffffffff167fddf252ad1be2c89b69c2b068fc378daa952ba7f163c4a11628f55a4df523b3ef60405160405180910390a450505600a165627a7a72305820aee3f998230e79eed2ed3dfb1249c25987c970db5b1a210ae0dc85a3b8e46b0b0029",
  "source": "//pragma solidity ^0.5.0; //solidity version\npragma solidity ^0.4.24;\n\nimport \"../node_modules/zeppelin-solidity/contracts/token/ERC721/ERC721Token.sol\";\n\n/**\n * @dev Implementation of ERC-721 non-fungible token standard.\n */\ncontract CoShoe is ERC721Token {\n\n    /**\n    *  @dev Ethereum address that deployed the contract. The keyword public makes the variable readable from outside of the contract.\n    */\n    address public minter;\n\n    /**\n    *  @dev Shoe struct holding the shoes owner (address), name (string),\n    * an image (url where it can be downloaded), sold  (boolean)\n    */\n    struct Shoe {\n        address owner; //this was previously address payable but The payable modifier for addresses is only available from solc v0.5.xx\n        string name; //name at the back of the shoe chosen by buyer\n        string image; //url to the image that is on the side of the shoe, chosen by buyer\n        bool sold;\n    }\n\n    /**\n    *  @dev state variables\n    */\n    //uint8 NUM_TOKENS_TO_MINT = 100; //number of tokens (pairs of shoes) to mint on deployment of contract\n\n    //100 tokens is causing out of gas exception, 25 tokens uses 7673544 gas (limit is approx 8000000),\n    // set gas limit in Ganache to 0x2FEFD800000 i.e. 3294197972992 and gas price to 200000000000000\n    // then cost of deploy for 100 tokens is 21526736\n    uint8 constant NUM_TOKENS_TO_MINT = 100;\n\n\n    uint8 shoesSold = 0; //number of shoes sold\n   // uint64  constant ETHER_WEI_CONST = 1000000000000000000; // 1 ether = 1000000000000000000 wei\n    //uint64 constant PRICE = ((1) * ETHER_WEI_CONST)/2; //price in wei - THIS WORKS\n    uint64 constant PRICE = (1 ether)/2; //price in wei for 0.5 ether\n\n    /**\n    *  @dev Array of shoes. Made public because of length method.\n    */\n    Shoe[] public shoes;\n\n    /**\n    * @dev An event for lightweight clients when a new shoe is created.\n    * @param _shoeId The NFT that got created.\n    */\n    event registeredShoeEvent (\n        uint indexed _shoeId\n    );\n\n    /**\n    * @dev Contract constructor.\n    * ERC721Token(_name, _symbol) is required in OpenZeppelin implementation. _name and _symbol set in migration script\n    */\n    constructor (string _name, string _symbol) ERC721Token(_name, _symbol) public {\n        //set minter to Ethereum address that deployed the contract\n        minter = msg.sender;\n\n        //mint 100 tokens\n        createShoePair(minter);\n    }\n\n    /**\n    * @dev A function to create 100 shoe pairs (i.e. 100 tokens).\n    * The owner of each token is the address deploying the contract (msg.sender),\n    * name and image are empty strings(  ), and sold is equal to false.\n    * Add the pair to the array of shoes.\n    * @param _to address of future owner of the token\n    */\n    function createShoePair(address _to) private {\n        string memory _tokenURI = \"CoShoe Token\";\n        for (uint _tokenId = 0; _tokenId < NUM_TOKENS_TO_MINT; _tokenId++) {\n\n            //create new pair of shoes, push to array and return position\n            shoes.push(Shoe(_to, \"\", \"\", false));\n\n            // trigger registeredShoe event\n            emit registeredShoeEvent(_tokenId);\n\n            // Create unique token by calling Open-Zeppelin function\n            super._mint(_to, _tokenId);\n            super._setTokenURI(_tokenId, _tokenURI);\n        }\n    }\n\n    /**\n    * @dev A function to buy shoes and increment shoesSold\n    * Takes the input parameters name, image.\n    * Checks that there is still a pair of shoes left that has not been sold yet, otherwise it throws an error.\n    * Checks that the value that is attached to the function call equal the price , otherwise it throws an error.\n    * Transfers the ownership of a Shoe to the caller of the function by setting owner within the Shoe struct,\n      setting name and image to the input variables, and changing sold to true.\n    * @param _name name at the back of the shoe chosen by buyer\n    * @param _image url of image on side of shoe chosen by buyer\n    */\n    function buyShoe(string _name, string _image) public payable{\n        require((NUM_TOKENS_TO_MINT - shoesSold) >= 1, 'No pair of shoes left');\n        require(msg.value == PRICE, 'Proposed price does not match price of shoes');\n\n        uint shoeIndex = shoesSold; //shoesSold starts at 0\n        uint buyerSendAmount = msg.value; //number of wei sent with the message\n        address buyerAddress = msg.sender; //sender of the message (current call)\n\n        //Shoe memory shoeToBuy = shoes[shoeIndex];\n        address previousOwner = shoes[shoeIndex].owner;\n        previousOwner.transfer(buyerSendAmount); //transfer money to previous owner\n        //transferFrom(previousOwner, buyerAddress, shoeIndex); //this would otherwise throw since msg.sender account1 in test\n        shoes[shoeIndex].owner = buyerAddress;\n        shoes[shoeIndex].name = _name;\n        shoes[shoeIndex].image = _image;\n        shoes[shoeIndex].sold = true;\n        shoesSold += 1;\n    }\n\n    /**\n    * @dev A function that returns an array of bools that are set to true if the equivalent index in shoes belongs to caller of this function\n    * Example: [true, false, false, false, false, true, false, false, ]\n    * Function implemented in a gas saving manor\n    */\n    function checkPurchases() public view returns(bool[]) {\n        uint shoeArrayLength = this.getNumberOfRegisteredShoes();\n        bool[] memory shoeBoolArray = new bool[](shoeArrayLength);\n        bool shoeBoolArrayItem;\n        for (uint i = 0; i < shoeArrayLength; i++) {\n            if (shoes[i].owner == msg.sender){\n                shoeBoolArrayItem = true;\n            }\n            else{\n                shoeBoolArrayItem = false;\n            }\n            shoeBoolArray[i] = shoeBoolArrayItem;\n        }\n        return shoeBoolArray;\n    }\n\n\n    /**\n    * @dev A function to get the number of shoes registered / tokens minted i.e. length of shoes array\n    */\n    function getNumberOfRegisteredShoes() external view returns(uint) {\n        return shoes.length;\n    }\n\n    /**\n    * @dev A function to return PRICE, used to check in tests that PRICE is 0.5 ether\n    */\n    function getPrice() public pure returns(uint) {\n        return PRICE;\n    }\n\n    /**\n    * @dev A function to return number of shoesSold\n    */\n    function getNumShoesSold() public view returns(uint) {\n        return shoesSold;\n    }\n}\n",
  "sourcePath": "/Users/juliankanjere/dev/Blockchain/CoShoe/contracts/CoShoe.sol",
  "compiler": {
    "name": "solc",
    "version": "0.4.24+commit.e67f0147.Emscripten.clang"
  },
  "schemaVersion": "3.0.11",
  "updatedAt": "2019-08-05T06:48:14.331Z",
  "devdoc": {
    "methods": {
      "approve(address,uint256)": {
        "details": "Approves another address to transfer the given token ID The zero address indicates there is no approved address. There can only be one approved address per token at a given time. Can only be called by the token owner or an approved operator.",
        "params": {
          "_to": "address to be approved for the given token ID",
          "_tokenId": "uint256 ID of the token to be approved"
        }
      },
      "balanceOf(address)": {
        "details": "Gets the balance of the specified address",
        "params": {
          "_owner": "address to query the balance of"
        },
        "return": "uint256 representing the amount owned by the passed address"
      },
      "buyShoe(string,string)": {
        "details": "A function to buy shoes and increment shoesSold Takes the input parameters name, image. Checks that there is still a pair of shoes left that has not been sold yet, otherwise it throws an error. Checks that the value that is attached to the function call equal the price , otherwise it throws an error. Transfers the ownership of a Shoe to the caller of the function by setting owner within the Shoe struct, setting name and image to the input variables, and changing sold to true.",
        "params": {
          "_image": "url of image on side of shoe chosen by buyer",
          "_name": "name at the back of the shoe chosen by buyer"
        }
      },
      "checkPurchases()": {
        "details": "A function that returns an array of bools that are set to true if the equivalent index in shoes belongs to caller of this function Example: [true, false, false, false, false, true, false, false, ] Function implemented in a gas saving manor"
      },
      "exists(uint256)": {
        "details": "Returns whether the specified token exists",
        "params": {
          "_tokenId": "uint256 ID of the token to query the existence of"
        },
        "return": "whether the token exists"
      },
      "getApproved(uint256)": {
        "details": "Gets the approved address for a token ID, or zero if no address set",
        "params": {
          "_tokenId": "uint256 ID of the token to query the approval of"
        },
        "return": "address currently approved for the given token ID"
      },
      "getNumShoesSold()": {
        "details": "A function to return number of shoesSold"
      },
      "getNumberOfRegisteredShoes()": {
        "details": "A function to get the number of shoes registered / tokens minted i.e. length of shoes array"
      },
      "getPrice()": {
        "details": "A function to return PRICE, used to check in tests that PRICE is 0.5 ether"
      },
      "isApprovedForAll(address,address)": {
        "details": "Tells whether an operator is approved by a given owner",
        "params": {
          "_operator": "operator address which you want to query the approval of",
          "_owner": "owner address which you want to query the approval of"
        },
        "return": "bool whether the given operator is approved by the given owner"
      },
      "name()": {
        "details": "Gets the token name",
        "return": "string representing the token name"
      },
      "ownerOf(uint256)": {
        "details": "Gets the owner of the specified token ID",
        "params": {
          "_tokenId": "uint256 ID of the token to query the owner of"
        },
        "return": "owner address currently marked as the owner of the given token ID"
      },
      "safeTransferFrom(address,address,uint256)": {
        "details": "Safely transfers the ownership of a given token ID to another address If the target address is a contract, it must implement `onERC721Received`, which is called upon a safe transfer, and return the magic value `bytes4(keccak256(\"onERC721Received(address,address,uint256,bytes)\"))`; otherwise, the transfer is reverted.   * Requires the msg sender to be the owner, approved, or operator",
        "params": {
          "_from": "current owner of the token",
          "_to": "address to receive the ownership of the given token ID",
          "_tokenId": "uint256 ID of the token to be transferred"
        }
      },
      "safeTransferFrom(address,address,uint256,bytes)": {
        "details": "Safely transfers the ownership of a given token ID to another address If the target address is a contract, it must implement `onERC721Received`, which is called upon a safe transfer, and return the magic value `bytes4(keccak256(\"onERC721Received(address,address,uint256,bytes)\"))`; otherwise, the transfer is reverted. Requires the msg sender to be the owner, approved, or operator",
        "params": {
          "_data": "bytes data to send along with a safe transfer check",
          "_from": "current owner of the token",
          "_to": "address to receive the ownership of the given token ID",
          "_tokenId": "uint256 ID of the token to be transferred"
        }
      },
      "setApprovalForAll(address,bool)": {
        "details": "Sets or unsets the approval of a given operator An operator is allowed to transfer all tokens of the sender on their behalf",
        "params": {
          "_approved": "representing the status of the approval to be set",
          "_to": "operator address to set the approval"
        }
      },
      "supportsInterface(bytes4)": {
        "details": "implement supportsInterface(bytes4) using a lookup table"
      },
      "symbol()": {
        "details": "Gets the token symbol",
        "return": "string representing the token symbol"
      },
      "tokenByIndex(uint256)": {
        "details": "Gets the token ID at a given index of all the tokens in this contract Reverts if the index is greater or equal to the total number of tokens",
        "params": {
          "_index": "uint256 representing the index to be accessed of the tokens list"
        },
        "return": "uint256 token ID at the given index of the tokens list"
      },
      "tokenOfOwnerByIndex(address,uint256)": {
        "details": "Gets the token ID at a given index of the tokens list of the requested owner",
        "params": {
          "_index": "uint256 representing the index to be accessed of the requested tokens list",
          "_owner": "address owning the tokens list to be accessed"
        },
        "return": "uint256 token ID at the given index of the tokens list owned by the requested address"
      },
      "tokenURI(uint256)": {
        "details": "Returns an URI for a given token ID Throws if the token ID does not exist. May return an empty string.",
        "params": {
          "_tokenId": "uint256 ID of the token to query"
        }
      },
      "totalSupply()": {
        "details": "Gets the total amount of tokens stored by the contract",
        "return": "uint256 representing the total amount of tokens"
      },
      "transferFrom(address,address,uint256)": {
        "details": "Transfers the ownership of a given token ID to another address Usage of this method is discouraged, use `safeTransferFrom` whenever possible Requires the msg sender to be the owner, approved, or operator",
        "params": {
          "_from": "current owner of the token",
          "_to": "address to receive the ownership of the given token ID",
          "_tokenId": "uint256 ID of the token to be transferred"
        }
      }
    }
  },
  "userdoc": {
    "methods": {}
  }
}